:100000000C9435000C945D000C945D000C945D0024
:100010000C945D000C945D000C945D000C945D00EC
:100020000C945D000C945D000C945D000C945D00DC
:100030000C945D000C9418090C945D000C945D0008
:100040000C94F2080C945D000C9445090C945D002E
:100050000C945D000C94CE080C945D000C945D0033
:100060000C945D000C945D00690911241FBECFEF54
:10007000D8E0DEBFCDBF11E0A0E0B1E0E8E8F4E1F8
:1000800002C005900D92A83BB107D9F721E0A8EB7B
:10009000B1E001C01D92AE3EB207E1F710E0CAE642
:1000A000D0E004C02297FE010E94F309C836D107B0
:1000B000C9F70E94CB050C94420A0C9400000895E5
:1000C0008091ED0181110FC0E3EBF0E08EE18083C0
:1000D000808186958093B400539A239A2B9A81E06D
:1000E0008093ED0108958091ED01813091F4E3EB6F
:1000F000F0E0808181508083808186958093B40078
:1001000080818B30C0F4239A2B9882E08093ED019C
:1001100008958091ED01823071F4E3EBF0E080818D
:100120008F5F8083808186958093B4008081843640
:1001300010F01092ED0108958091ED01811115C02C
:10014000E3EBF0E08EE18083808186958093B400BC
:1001500084E690E09093EC018093EB01539A239A0C
:100160002B9A81E08093ED0108958091ED0181301B
:10017000A9F48091EB019091EC0101979093EC012F
:100180008093EB018091EB019091EC010697E0F4F4
:1001900053982B9882E08093ED0108958091ED01B2
:1001A000823091F48091EB019091EC010196909353
:1001B000EC018093EB018091EB019091EC01863989
:1001C000910510F01092ED0108958091EA018430BC
:1001D00008F040C08091ED0181110FC0E3EBF0E029
:1001E0008EE18083808186958093B400539A239A10
:1001F0002B9A81E08093ED012DC08091ED0181303B
:1002000091F4E3EBF0E080818150808380818695DA
:100210008093B40080818B30E8F4239A2B9882E09D
:100220008093ED0117C08091ED01823099F4E3EBEA
:10023000F0E080818F5F8083808186958093B40019
:100240008081843638F08091EA018F5F8093EA01E3
:100250001092ED018091EA01843008F453C080913E
:10026000ED01811115C0E3EBF0E08EE18083808128
:1002700086958093B40084E690E09093EC0180939F
:10028000EB01539A239A2B9A81E08093ED01089514
:100290008091ED018130A9F48091EB019091EC0106
:1002A00001979093EC018093EB018091EB01909189
:1002B000EC01069738F553982B9882E08093ED0176
:1002C00008958091ED018230E9F48091EB019091E5
:1002D000EC0101969093EC018093EB018091EB018E
:1002E0009091EC018639910568F08091EA018F5F69
:1002F0008093EA011092ED018091EA01883011F4B7
:100300001092EA010895EF920F938E2D9FB7F89403
:10031000611102C0289803C0613009F4289A299815
:10032000411102C05C9803C0413009F45C9A21116C
:1003300002C05D9803C0213009F45D9A011102C02A
:100340005E9803C0013009F45E9A811102C05F9883
:1003500003C0813009F45F9A299A8AE18A95F1F7FE
:1003600000C029989FBF0F91EF900895EF920F93CF
:100370001F93CF93DF93EC011FB7F89484B1836090
:1003800084B98AB1806F8AB92FEF89EF90E021504C
:1003900080409040E1F700C00000E12C00E021E047
:1003A00041E060E0CE010E9483018FE79EE3019768
:1003B000F1F700C0000021E040E060E0CE010E94C3
:1003C00083018FE79EE30197F1F700C0000021E071
:1003D00040E060E0CE010E948301EE24E39420E03F
:1003E00040E060E0CE010E9483018FE79EE3019729
:1003F000F1F700C00000E12C20E040E060E0CE0119
:100400000E948301EE24E39420E040E060E0CE010E
:100410000E9483018FE79EE30197F1F700C000007F
:10042000E12C20E040E060E0CE010E94830120E06A
:1004300041E060E0CE010E9483018FE79EE30197D7
:10044000F1F700C0000020E040E060E0CE010E9433
:10045000830101E021E040E060E0CE010E948301E1
:100460008FE79EE30197F1F700C0000000E020E075
:1004700040E060E0CE010E948301EE24E39401E0BD
:1004800020E040E060E0CE010E9483018FE79EE320
:100490000197F1F700C000001FBFDF91CF911F91BE
:1004A0000F91EF900895EF920F931F93CF93DF93E7
:1004B000EC011FB7F894E12C00E020E040E060E0A0
:1004C0000E94830120E041E060E0CE010E948301B0
:1004D0008FE79EE30197F1F700C000001FBFDF9197
:1004E000CF911F910F91EF900895DF92EF92FF92BD
:1004F0000F931F93CF93DF93EC01F42EDFB6F894A4
:10050000611131C0EE24E39400E020E040E00E945D
:100510008301E12C20E040E060E0CE010E948301F5
:100520008FE79EE30197F1F700C00000FF2009F478
:100530004BC010E0E12C00E020E041E060E0CE01A3
:100540000E94830101E020E040E060E0CE010E94D3
:1005500083018FE79EE30197F1F700C000001F5F62
:100560001F11E8CF31C0613079F5EE24E39400E04B
:1005700021E040E060E00E94830120E040E060E094
:10058000CE010E9483018FE79EE30197F1F700C03F
:100590000000FF20C9F010E0E12C00E020E041E085
:1005A00060E0CE010E94830101E021E041E060E0D3
:1005B000CE010E9483018FE79EE30197F1F700C00F
:1005C00000001F5F1F11E8CFDFBEDF91CF911F91A9
:1005D0000F91FF90EF90DF900895EF92FF920F93AD
:1005E0001F93CF93DF93EC01162FFFB6F894E62EFE
:1005F000EE1CEE24EE1C66FB002700F965FB2227AB
:1006000020F964FB442740F961E00E94830113FB59
:10061000EE24E0F812FB002700F911FB222720F955
:10062000412F417061E0CE010E9483018FE79EE37C
:100630000197F1F700C00000FFBEDF91CF911F913D
:100640000F91FF90EF900895EF92FF920F931F93F9
:10065000CF93DF938C01EB01EFB6F89468816623AA
:1006600059F0F12CC8010E94ED02F394FE01EF0D48
:10067000F11D60816111F6CFEFBEDF91CF911F9127
:100680000F91FF90EF9008958FB7F8942A982298D1
:100690008FBF08958FB7F8942A98229A8FBF089534
:1006A0003FB7F8942FEF20930001FC0120833FBF58
:1006B00008958FB7F89490E690937C009FEC909308
:1006C0007A008FBF08958FB7F894EAE7F0E0908141
:1006D000977790838FBF0895809179008093000170
:1006E000EAE7F0E080818064808308951F93CF93D0
:1006F000DF93EC011FB7F8946091000170E080E097
:1007000090E00E94920920E030E040E251E40E9433
:100710008C09181614F018825EC06091000170E018
:1007200064527109882777FD8095982F0E9492095D
:100730009F7720E030E040E251E40E948C091816D7
:100740001CF084E2888347C06091000170E062552C
:100750007109882777FD8095982F0E9492099F77CD
:1007600020E030E040E251E40E948C0918161CF0B1
:1007700082E5888330C06091000170E06E57710996
:10078000882777FD8095982F0E9492099F7720E017
:1007900030E040E251E40E948C0918161CF08EE70C
:1007A000888319C06091000170E0695B7109882736
:1007B00077FD8095982F0E9492099F7720E030E086
:1007C00040E251E40E948C0918161CF089EB8883E2
:1007D00002C08FEF888388811FBFDF91CF911F9167
:1007E000089524EA31E0FC01318320831092ED0169
:1007F0001092EC011092EB011092EA0108958FB76C
:10080000F894539AE0EBF0E0908193629083E1EBEF
:10081000F0E090819E609083E1E8F0E0908191604B
:100820009083EFE6F0E09081916090831092ED016B
:100830001092EC011092EB011092EA018FBF089523
:100840008FB7F8945398E0EBF0E090819C77908319
:10085000E1EBF0E09081917F9083E1E8F0E090811E
:100860009E7F9083EFE6F0E090819E7F90831092D0
:10087000B3001092B4001092ED011092EC011092AE
:10088000EB011092EA018FBF08951092E9010895DB
:100890008FB7F89498B19E6398B997B1917C97B946
:1008A0008FBF08958FB7F89495B5956095BDEEE626
:1008B000F0E09081916090838FBF08958FB7F89496
:1008C000EEE6F0E090819E7F90838FBF08954FB752
:1008D000F894E82FF92F80E090E051E02191019603
:1008E000213051F426B130E0082E02C0359527950D
:1008F0000A94E2F720FF05C08530910579F74FBFD4
:1009000008955093E901F8CF9FB7F8948091E901D9
:100910009FBF08958091C6008093D3018091D30139
:100920008C3361F41092D40181E090E0FC01EB5231
:10093000FE4F1082019684319105C1F78091D40158
:10094000843170F4E091D401F0E08091D301EB5256
:10095000FE4F80838091D4018F5F8093D4010CC0BF
:1009600080E090E0FC01EB52FE4F10820196843152
:100970009105C1F71092D4018091D5018C33D1F546
:100980008091D6018037B1F58091D701823791F5FA
:100990008091D8018F3671F58091D901873651F554
:1009A0008091DA01823731F58091DB01893511F5CB
:1009B0008091DC018E33F1F422C08091D601803722
:1009C00021F58091D701823701F58091D8018F36CA
:1009D000E1F48091D9018736C1F48091DA01823740
:1009E000A1F48091DB018E3481F48091DC018E339F
:1009F00061F409C08091D5018C3339F4DECF81E0F8
:100A00008093D20108951092D20108952091D501CA
:100A10002C3341F52091D601203321F52091D701C7
:100A2000203301F52091D8012033E1F42091D90140
:100A30002E33C1F414C02091D6012133E1F420916A
:100A4000DC012E33C1F413C02091D601223321F4EE
:100A50002091D8012E33A1F0FC0180810895FC0182
:100A60001082FACF2091D5012C3329F4E4CF21E074
:100A7000FC012083F1CF2091D5012C3369F7E4CF1D
:100A800022E0FC012083E8CFCF93DF93442381F061
:100A9000962FA62FB72FE0ECF0E0C6ECD0E08081D7
:100AA00085FFFDCF8D9188838A2F891B8417B8F32A
:100AB000DF91CF910895EF92FF920F931F93CF9301
:100AC000DF938C01623051F018F4613069F004C09A
:100AD000633031F0643031F0C0E007C0C6E005C0DB
:100AE000C9E003C0CCE001C0C3E0D0E0CE010E9469
:100AF0001C0AF82ECE0101960E941C0AE82EF8125C
:100B000003C0F801F1820DC0CE0102960E941C0ABA
:100B1000F81203C0F801F18204C0E81202C0F80123
:100B2000E182F8018181DF91CF911F910F91FF90B8
:100B3000EF9008950F931F93CF93DF93EC0184E11F
:100B400090E00E941C0A182F85E190E00E941C0A88
:100B5000082F181302C01A830BC086E190E00E9490
:100B60001C0A181302C01A8303C0081301C00A83A9
:100B7000DF91CF911F910F91089520E030E0F901AE
:100B8000EB52FE4F10822F5F3F4F24313105B9F7F2
:100B9000FC0110820895CF93DF93CDB7DEB727977E
:100BA0000FB6F894DEBF0FBECDBF2FEF83ED90E3FD
:100BB000215080409040E1F700C00000CE01069631
:100BC0000E945003CE0105960E94450486EC91E0F8
:100BD0009093C1018093C0018CEB91E09093C3018D
:100BE0008093C2018AEB91E09093C5018093C40188
:100BF00088EB91E09093C7018093C601CE010796E0
:100C00000E94B601CE0107960E944A03CE010596C6
:100C10000E94480487E690E09093C5008093C4004A
:100C200080E28093C00086E08093C20080E98093D8
:100C3000C100BB24B3940F2EFBECCF2EF1E0DF2ECE
:100C4000F02D0F2EFEEC2F2EF1E03F2EF02DAC2CD0
:100C50007D2C612C512C0F2EF1EC8F2E912CF02D30
:100C60008091D2018111E6C1BB2009F473C0F894D0
:100C7000CE0106960E945903CE0105960E945204A9
:100C8000CE0107960E94530240E060E0CE01079635
:100C90000E94750261E071E0CE0107960E94240374
:100CA00040E061E0CE0107960E9475026AE071E0C3
:100CB000CE0107960E9424038FEF8093D1011092FA
:100CC000D00160E0CE0101960E945B05F6018083B1
:100CD00061E0CE0101960E945B05ECECF1E08083BF
:100CE00062E0CE0101960E945B05EDECF1E08083AD
:100CF00063E0CE0101960E945B05F101808364E010
:100D0000CE0101960E945B05EFECF1E0808310922A
:100D1000CA0183E08093C901CE0101960E949A0521
:100D2000E82FF0E0EE0FFF1FE054FE4F808191812D
:100D30009093BF018093BE0188E0F40180834AE074
:100D400066E171E0CE0101960E94440580E9F4015C
:100D500080837894CE0106960E9476039091D1010B
:100D6000891709F447C1CE0106960E947603809345
:100D7000D101823509F459C030F4882309F4C6C082
:100D8000843241F037C18E3709F49AC0893B09F4A7
:100D90001FC130C18091CA01811120C0CE010796C8
:100DA0000E94530240E060E0CE0107960E94750267
:100DB00061E071E0CE0107960E94240340E061E00B
:100DC000CE0107960E9475026AE071E0CE01079697
:100DD0000E94240383E08093C9010CC1823009F092
:100DE00009C1CE0107960E94530240E060E0CE01A7
:100DF00007960E94750260E271E0CE0107960E949C
:100E0000240340E061E0CE0107960E9475026BE288
:100E100071E0CE0107960E94240386EC91E00E94C7
:100E2000200485E08093C901E5C08091CA01811149
:100E300020C0CE0107960E94530240E060E0CE0140
:100E400007960E94750265E371E0CE0107960E9445
:100E5000240340E061E0CE0107960E9475026EE334
:100E600071E0CE0107960E94240384E08093C901BB
:100E7000C1C0823009F0BEC0CE0107960E94530265
:100E800040E060E0CE0107960E9475026AE471E0DE
:100E9000CE0107960E94240340E061E0CE01079650
:100EA0000E94750265E571E0CE0107960E94240359
:100EB00086EC91E00E94FF0386E08093C9019AC00E
:100EC000CE0107960E94530240E060E0CE010796F3
:100ED0000E94750261E071E0CE0107960E94240332
:100EE00040E061E0CE0107960E9475026AE071E081
:100EF000CE0107960E94240383E08093C9011092DB
:100F0000CA0186EC91E00E94200474C08091C9015E
:100F10008330E1F581E08093CA01CE0107960E94FB
:100F2000530240E060E0CE0107960E9475026FE533
:100F300071E0CE0107960E94240340E061E0CE01FB
:100F400007960E947502EA2CF72C062D152DF70145
:100F500081917F010F5F1F4F8130A1F44AE0BE01F4
:100F60006C5F7F4FC8010E94F709BE016C5F7F4F25
:100F7000CE0107960E94240368E671E0CE01079631
:100F80000E9424030530110511F734C0843091F517
:100F900082E08093CA01CE0107960E94530240E08E
:100FA00060E0CE0107960E94750260E271E0CE011A
:100FB00007960E94240340E061E0CE0107960E945C
:100FC00075026BE271E0CE0107960E94240312C005
:100FD0008091D001882339F0CE0107960E944A0300
:100FE0001092D00107C0CE0107960E94440381E011
:100FF0008093D001CE0105960E948404882309F4D1
:10100000C7C0CE0107960E94530240E060E0CE01C7
:1010100007960E947502CE0107960E9444036AE675
:1010200071E0CE0107960E94240386EC91E00E94B5
:10103000FF03FFCF8091D201882309F411CEB110B4
:1010400033C0F894CE0106960E946303CE01059644
:101050000E945E04CE0107960E944403CE010796CB
:101060000E94530240E060E0CE0107960E947502A4
:1010700066E771E0CE0107960E94240301EC10E0C0
:1010800088E0F801808349E065E871E0CE010196CF
:101090000E94440580E9F8018083CE0101960E94F8
:1010A000BD057894BB24B394CE0101960E94060539
:1010B0009091C801891709F4CECDCE0101960E9406
:1010C00006058093C801813019F08230D1F1C3CD7B
:1010D00007ED11E0812C912C16C0F801608160535E
:1010E0000E94240A9394892D90E08E159F05ACF3FD
:1010F0000F2EF3E09F2EF02D980C0F5F1F4FFFE097
:101100009F1659F0892C892D90E07C0123E0E20E96
:10111000F11C8E159F050CF3EBCF01EC10E088E07D
:10112000F801808348E06EE871E0CE0101960E94EC
:101130004405CE0101960E94BD0580E9F801808337
:101140008ACD04E110E00F2EF5EDEF2EF1E0FF2E39
:10115000F02DF70162816053C8010E94240A0F5FDD
:101160001F4F07311105A9F701EC10E088E0F801E5
:1011700080834AE066E971E0CE0101960E94440551
:10118000CE0101960E94BD0580E9F801808363CD00
:101190008091D201811155CFB12C62CD1F920F9257
:1011A0000FB60F9211242F933F934F935F936F933A
:1011B0007F938F939F93AF93BF93EF93FF930E947F
:1011C0006C03FF91EF91BF91AF919F918F917F91B0
:1011D0006F915F914F913F912F910F900FBE0F90A4
:1011E0001F9018951F920F920FB60F9211242F93F4
:1011F0003F934F935F936F937F938F939F93AF939F
:10120000BF93EF93FF938BEC91E00E946704FF91F3
:10121000EF91BF91AF919F918F917F916F915F916E
:101220004F913F912F910F900FBE0F901F901895E7
:101230001F920F920FB60F9211242F933F934F934B
:101240005F936F937F938F939F93AF93BF93EF932E
:10125000FF938091BE019091BF01DC01ED91FC9163
:101260000190F081E02D0995FF91EF91BF91AF9131
:101270009F918F917F916F915F914F913F912F91AE
:101280000F900FBE0F901F9018951F920F920FB6E0
:101290000F9211242F933F934F935F936F937F93FC
:1012A0008F939F93AF93BF93EF93FF930E948A0412
:1012B000FF91EF91BF91AF919F918F917F916F912E
:1012C0005F914F913F912F910F900FBE0F901F9004
:1012D000189586EC91E00E94F1038CEB91E00E945E
:1012E000F1038AEA91E09093BD018093BC018AEBFF
:1012F00091E00E94F10380EB91E09093BB01809319
:10130000BA0188EB91E00E94F10386EB91E09093A3
:10131000B9018093B801089540D008F481E00895A0
:10132000E89409C097FB3EF490958095709561957F
:101330007F4F8F4F9F4F9923A9F0F92F96E9BB2735
:101340009395F695879577956795B795F111F8CFB1
:10135000FAF4BB0F11F460FF1BC06F5F7F4F8F4F1C
:101360009F4F16C0882311F096E911C0772321F012
:101370009EE8872F762F05C0662371F096E8862FAA
:1013800070E060E02AF09A95660F771F881FDAF701
:10139000880F9695879597F90895990F0008550F2E
:1013A000AA0BE0E8FEEF16161706E807F907C0F0EB
:1013B00012161306E407F50798F0621B730B840BF3
:1013C000950B39F40A2661F0232B242B252B21F4CD
:1013D00008950A2609F4A140A6958FEF811D811D6D
:1013E0000895EE0FFF1F0590F491E02D0994BB279F
:1013F0004A3031F4992322F4BDE2909581959F4FB4
:101400000C94030ABB27FB015527AA27880F991FB5
:10141000AA1FA41710F0A41B83955051B9F7A05D23
:10142000AA3308F0A95DA193009779F7B111B193A0
:101430001192CB010C94320AF999FECF92BD81BD75
:10144000F89A992780B50895262FF999FECF1FBAEB
:1014500092BD81BD20BD0FB6F894FA9AF99A0FBEDD
:1014600001960895DC01FC01672F71917723E1F764
:10147000329704C07C916D9370836291AE17BF0761
:08148000C8F30895F894FFCFB2
:10148800FF3E427574746F6E730020536F756E64FF
:1014980020746573740050726F67724F66660A0035
:1014A8003E536F756E64204F66660020536F756EED
:1014B80064204F6E0020427574746F6E73003E5343
:1014C8006F756E6420746573740020536F756E6455
:1014D800204F6666003E536F756E64204F6E004560
:1014E8006E61626C65643A0020002020202054520E
:1014F80045564F47410050726F6772616D6D696E56
:10150800672E2E2E0050726F67724F6E0A0042755A
:10151800745365740A00536F756E645365740A00DA
:10152800000000005F0000000000600000000000F4
:081538009C0000000000E5002A
:00000001FF
